:03000000020700F4
:03000B00020829BF
:10001B000207D8C0F9A4B0999282F880908883C661
:10002B00A1868EF70CAF4740792430191202780065
:10003B0010ABA323FF4620100804020101020304A6
:10004B000574FF7590FFC29320970201B6209602AC
:10005B0001BF20950201C820940201D17590FFC207
:10006B009220970201DA20960201E320950201EC1F
:10007B0020940201F57590FFC29120970201FE209A
:10008B0096022107209502211020940221197590C8
:10009B00FFC2902097022122209602212B2095024D
:1000AB002134209402213D7590FF22740F7540017D
:1000BB0075410122740E75400175410222740D7554
:1000CB00400175410322740C754001754104227483
:1000DB000B75400275410122740A7540027541028D
:1000EB00227409754002754103227408754002752C
:1000FB004104227407754003754101227406754053
:10010B000375410222740575400375410322740483
:10011B007540037541042274037540047541012237
:10012B0074027540047541022274017540047541D7
:0B013B0003227400754004754104228B
:100700007580FF75A0007530107531107532107549
:1007100033107534107535107538007570007571AB
:10072000007544FF7545007546FF75470075480024
:10073000753A03758911758DFC758B18758CD87594
:100740008AF075A88AD28ED28C12004CB54404056A
:10075000458005F544754501E545B403478000E54E
:1007600046B54402803EE544F546E548B4020875C6
:100770004700754800802DE544B4FF19E547C39450
:10078000645002800875470075480080177547005F
:10079000754800800FE544540FF560756101754799
:1007A00000754800E570B4000512086D809BB40127
:1007B000051208A7E149B4110512093DE149B41237
:1007C000051209C1E149B41305120A45E149B40211
:1007D00005120AC8E149E149C0D0C0E0C0F0C082BA
:1007E000C083C000C001758DFC758B187580FF75C6
:1007F000A000E538FA2430F8E6F5F090001EE5F0A8
:1008000093F5F0900041EA93F9E5F0F580E9F5A061
:100810000538E538B40603753800D001D000D08320
:10082000D082D0F0D0E0D0D032C0D0C0E0C0F075DF
:100830008CD8758AF0E546B4FF02802AE547B4FFFC
:100840000280230547E547C3946450028018E548B9
:10085000B40013E560540F4480F56075610175487C
:010860000295
:100861007547648000D0F0D0E0D0D032E571B5702A
:1008710019E561B400028018E560B48A0875700258
:10088100756100800B7561008006E570F57180006F
:10089100753010753110753210753310753410754F
:1008A100351075390422E571B57007E561B4001B97
:1008B10001B9E570F571800075351575341E753314
:1008C1001675321275311775300C22E560540FB46C
:1008D1000A0412090522E560540FB401077570116D
:1008E10075610022E560540FB402077570127561DD
:1008F1000022E560540FB40307757013756100227F
:1009010075610022E550600FE552600BE554600708
:100911007570007561002275350E753412753312CC
:100921007532007531017530017B047CF07DFF006B
:100931000000DDFBDCF7DBF375610022E571B570CA
:1009410065E561B40003800022E560540FFFC394A4
:100951000A5014E53B2430F8EFF6E53BB40202807F
:1009610002153B75610022E560B40B22E53B2430A2
:10097100F87610053BE53BC39404500475610022F1
:10098100753B03E53B2430F8761075610022E56084
:10099100B40A0FE533F550E532F551756100757014
:0809A100012275610022E570DE
:1009A900F57175351E753420753310753210753132
:1009B90021753021753B0322E571B57065E561B498
:1009C9000003800022E560540FFFC3940A5014E528
:1009D9003B2430F8EFF6E53BB401028002153B7584
:1009E900610022E560B40B22E53B2430F87610055E
:1009F9003BE53BC39404500475610022753B03E554
:100A09003B2430F8761075610022E560B40A0FE5E1
:100A190033F552E532F55375610075700122756140
:100A29000022E570F571753512753413753310753B
:100A39003210753110753021753B0322E571B5709F
:100A490061E561B40003800022E560540FFFC3949F
:100A59000A5014E53B2430F8EFF6E53BB404028074
:100A690002153B75610022E560B40B22E53B243099
:100A7900F87610053BE53BC39405500475610022E7
:100A8900753B04E53B2430F8761075610022E5607A
:100A9900B40A0BE534F5547561007570012275616E
:100AA9000022E570F57175351775352275341075A5
:100AB9003321753221753121753021753B0422E5C9
:100AC90071B5704FE561B400028065E560540FFFB0
:0A0AD900C3940A5015E5392430F8E3
:100AE300EFF6E539B4FF02800215397561008046DF
:100AF300E560B40B410539E539C39405500CE5397C
:100B03002430F87610756100802C753904E539249A
:100B130030F87610756100801DE570F5717570020F
:100B230075351175341075331075321075311075B4
:100B3300301075390422E561B4000122E560B40A7E
:100B430013E539B4FF07120B5B75610022120B88A2
:100B5300756100227561002278047B00E82430F976
:100B6300E7FA900047EB93B50202800BEAF5F0EB4E
:100B730090004793B5F00A180BEBB405DF120BC6D0
:100B830022120B8822153AE53A602475350F753425
:100B93000A75331375320575310EE53AF5307B0668
:100BA3007CF07DFF000000DDFBDCF7DBF3611C75EF
:100BB3003001753101753200753312753412753594
:070BC3000E61B27570012202
:00000001FF
