:10140F0075FFDE75FFAD227589112275B207227542
:10141F00A4FF75A50F75A6FF75A7FF75B5FF75E33B
:10142F004075A3002212140F12141E121416121458
:02143F001A226F
:10000000C0F9A4B0999282F880908883C6A1868EA8
:10001000F70CAF4740792430191202780010ABA3D7
:1000200023FF46C1BFFF80402010080401020304E3
:0100300005CA
:03000000020200F9
:03000B00021222BC
:03001B000213E9E4
:03002B000214625A
:100200001214347580FF75A0007581807400120F80
:100210009D7538007570007571007544FF75450057
:100220007546FF754700754800753A031213DA12D8
:100230001219120D6AD2AF120347120A13756D011B
:10024000121380E570B4000512037B80F3B420051F
:1002500012037B80EBB4210512037B80E3B42205FB
:1002600012037B80DBB4230512037B80D3B401052A
:10027000120A314140B41105120A314140B412054D
:10028000120A314140B41305120A314140B402054B
:10029000120A314140B40305120A314140B4040549
:0702A000120A314140414008
:10138000121012B5440405458005F544754501E584
:1013900045B40345E546B54402803EE544F546E5DF
:1013A00048B40208754700754800802DE544B4FF35
:1013B00019E547C3946450028008754700754800DA
:1013C0008017754700754800800FE544540FF5609D
:0A13D00075610175470075480022A1
:1012EA00C0E075F10F43844075F100D0E022C0E000
:1012FA0075F10F5384BF75F100D0E022C0E075F19B
:10130A000F43848075F100D0E022C0E075F10F53DD
:10131A00847F75F100D0E02275F10F43A4C075F106
:10132A00007C32121468743812134F7C321214681B
:10133A00743812134F740C12134F740612134F742D
:10134A000112134F22C0E01212F8D0E08007C0E069
:10135A001212EAD0E0F5B012130600001213147C40
:10136A000212146822740112134F22E493600612C7
:06137A001358A380F622C7
:100EFB00101010101010101010101010151E1612CC
:100F0B00170C0E12120001011E20101021211213BA
:100F1B00101010212210212121211110101010105E
:100F2B000F0A13050E000E1212000101FFFFFFFF47
:100F3B00FFFFC0F9A4B0999282F880908883C6A174
:100F4B00868EF70CAF4740792430191202780010C7
:100F5B00ABA323FF46C1BFFF804020100804010252
:100F6B000304057580FF75A0FFE538FA2428F8E621
:100F7B00F5F0900F3DE5F093F5F0900F63EA93F4E5
:100F8B00F9E5F0F58089A00538E538B40603753826
:100F9B000022C0E0C0F0C082C083B40005900EFBFD
:100FAB00804BB40105900F018043B40205900F07ED
:100FBB00803BB40305900F0D8033B40405900F13E1
:100FCB00802BB40505900F198023B40605900F1FD5
:100FDB00801BB40705900F258013B40805900F2BC9
:100FEB00800BB40905900F318003900EFBC2AF78D4
:100FFB00287B00EB93F6080BEBB406F7D2AFD0834C
:07100B00D082D0F0D0E022FA
:100D6A0012147B22C0E0C0D0EFB4FE047A0A800FCE
:100D7A00B4FF047A0B8008B40900502B6029FAEA00
:100D8A001423FDC083C082900E1293FEED0493FFDC
:100D9A00D082D08312148712147F7CFA1214687CD2
:100DAA00FA121468121483D0D0D0E022C083C08211
:100DBA00900E30E493FABAFF028045A3E493FBA3B2
:100DCA00C083C082EA60141423FD900E1293FEEDD4
:100DDA000493FF12148712147F8003121483EB60AA
:100DEA0019C0E07C0F1214687C0F121468D0E0144A
:100DFA0070EF1214837C0A121468D082D08380B3F5
:100E0A00D082D08312148322FAD8FB69FBE9FC242E
:100E1A00FC8FFCF0FD45FD6DF91EF9DEFA8AFDB581
:100E2A00FDF5F6D1F7D10602060206030501060210
:100E3A00030205040303050103020B020608060464
:100E4A00080306010C02080208020602060305014D
:100E5A00020205020308060306010602050206014C
:100E6A00060108020602050203010301020201014A
:100E7A000901030202080503030105020302050230
:100E8A00050203020802061006040603050106020B
:100E9A00030205040303050103020B020608060404
:100EAA00080306010C0208020802060206030501ED
:100EBA0002020502030806030601060205020601EC
:100ECA0006010802060205020301030105020101E7
:100EDA0009010302020805030301050203020501D1
:100EEA0003010502050405020502030208020608B9
:010EFA00FFF8
:10147B001214412212144C2212144F221214552210
:10146800C000C001783A79F8D9FED8FADCF6D00184
:03147800D000227F
:1010120074FF7590FFC29320970302108C209603F1
:1010220002109520950302109E2094030210A775CA
:1010320090FFC2922097030210B02096030210B9CB
:101042002095030210C22094030210CB7590FFC2B8
:10105200912097030210D42096030210DD209503FD
:101062000210E62094030210EF7590FFC2902097C1
:10107200030210F820960302110120950302110ABF
:101082002094030211137590FF22740F75400175AD
:10109200410122740E75400175410222740D7540A2
:1010A2000175410322740C75400175410422740BD1
:1010B20075400275410122740A754002754102228F
:1010C2007409754002754103227408754002754126
:1010D20004227407754003754101227406754003AA
:1010E200754102227405754003754103227404752B
:1010F2004003754104227403754004754101227452
:101102000275400475410222740175400475410361
:0A11120022740075400475410422A8
:10121900758CCC758A2BD28C22C0D0C0E0C0F075F9
:101229008CCC758A2BE546B4FF02802AE547B4FFCA
:101239000280230547E547C3946450028018E548B6
:10124900B40013E560540F4480F560756101754879
:10125900027547648000E570B42102800FB4220250
:10126900800AB423028005B4207080000559E5592D
:10127900B46467755900E55760271557E570B421BF
:101289001CE528B4230AE55604B4000F7401800B49
:10129900B40D0AE55614B4000274FFF556E557700B
:1012A90039E570B42112757022755705755900E535
:1012B90058F5567571FF8022B4220E757023755743
:1012C900027559007571FF8011B4230E7570207570
:1012D900570A7559007571FF8000D0F0D0E0D0D061
:0112E90032D2
:1013DA00758911758DFC758B1875A88AD28E22C0F5
:1013EA00D0C0E0C0F0C082C083C000C001758DFCCF
:1013FA00758B18120F6ED001D000D083D082D0F036
:05140A00D0E0D0D0325B
:1014410075C800C2CFD2AD5384DF22D2CA22C2CA2C
:101451005384DF22C2CA8ECB8FCA8ECD8FCCD2CA23
:0714610022C2CF6384203298
:1009AF00C0F9A4B0999282F880908883C6A1868EF0
:1009BF00F70CAF4740792430191202780010ABA31F
:1009CF0023FF46C1BFFF804020100804010203042B
:1009DF0005436F6E66696775726174696E67202073
:1009EF002000526573657420506173733F2020207F
:1009FF002020004E65772050617373202020202027
:100A0F00202020007550107551107552107553101D
:100A1F007554109009DB78687F05E493F6A308DF1F
:100A2F00F922E570B40104120A6822B41104120A03
:100A3F00F722B41204120B4D22B41304120BA3228B
:100A4F00B40204120BF822B40304120CC722B4042C
:100A5F0004120CFF22120A6822E571B57002800F92
:100A6F00E570F57112136F9009E012137580007421
:100A7F0002120F9D8000E561B4000122E560540F62
:100A8F00B4010775701175610022B40207757012F9
:100A9F0075610022B4030775701375610022B40AE3
:100AAF0004120AB82275610022756100E550B41076
:100ABF00028020E551B410028019E552B410028073
:100ACF0012E553B41002800BE554B4100280047584
:100ADF007000227403120F9D7B267CF07DFF0000B7
:100AEF0000DDFBDCF7DBF322E571B57044E561B4A3
:100AFF00000380002275200275210312114DB40AE4
:100B0F0006120B2822153B75610022753B02E53B4F
:100B1F002428F8761075610022E560B40A0FE52AE3
:100B2F00F550E52BF5517561007570012275610067
:100B3F0022E570F5717404120F9D753B0222E57169
:0E0B4F00B57044E561B40003800022752002F9
:100B5D0075210412114DB40A06120B7E22153B7538
:100B6D00610022753B02E53B2428F8761075610083
:100B7D0022E560B40A0FE52AF552E52BF5537561B0
:100B8D00007570012275610022E570F57174051212
:100B9D000F9D753B0222E571B57040E561B4000310
:100BAD0080002275200175210112114DB40A061223
:100BBD000BD422153B75610022753B01E53B2428C2
:100BCD00F8761075610022E560B40A0BE529F5543D
:100BDD007561007570012275610022E570F5717502
:100BED0028177406120F9D753B0122E571B570240F
:100BFD00E561B40002804E7520017521051211A228
:100C0D007561008040753901E5392428F876107535
:100C1D0061008031E570F5717570027407120F9DDA
:100C2D0012136F9009E0121375752811752910753F
:100C3D002A10752B10752C10752D107539017561D5
:100C4D000075600022E561B4000122E560B40A1A66
:100C5D00E539B4050EE52DB410028007120C7B7535
:100C6D00610022120C9475610022756100227829B1
:100C7D0079687B05E6F5F0E7B5F0080809DBF512B4
:100C8D000CC322120C9422153AE53A602274081214
:0F0C9D000F9DE53AF52D7B267CF07DFF000000D2
:100CAC00DDFBDCF7DBF3120C2175600075610022B3
:100CBC007409120F9D81BC856D7022E571B5702091
:100CCC00E561601BE560540FB40A0775700475612B
:100CDC000022B40B0775700175610022756100224A
:100CEC00E570F57112136F9009F1121375740012FF
:100CFC000F9D22E571B57033E561B40001227520BA
:100D0C00017521051211A2B40A1DE539B40514E5CB
:100D1C002DB41002800D120D5C757001756D01758E
:100D2C006100227561002275610022E570F5711277
:100D3C00136F900A02121375753901752910752AF3
:100D4C0010752B10752C10752D107407120F9D2219
:0E0D5C00782979687F05E6F70809DFFA222278
:10111C00C0F9A4B0999282F880908883C6A1868E7B
:10112C00F70CAF4740792430191202780010ABA3AA
:10113C0023FF46C1BFFF80402010080401020304B6
:10114C0005C0F0E560540FFFB40A03D0F022B40BD5
:10115C0021E53B2428F8E6B4100EE53BB5200280CF
:10116C0009153BE53B2428F87610756100740BD00B
:10117C00F022E53B2428F8E6B41013EFF6E53BB576
:10118C0021028002053B7561007401D0F02275616B
:10119C00007400D0F022C0F0E560540FFFB40A25B3
:1011AC00E570B4021BC0E0C0F0C082C083120C7B9F
:1011BC00D083D082D0F0D0E07561007400D0F022E2
:1011CC00740AD0F022B40B21E5392428F8E6B410C7
:1011DC000EE539B5200280091539E5392428F87651
:1011EC0010756100740BD0F022E5392428F8E6B4B0
:1011FC001013EFF6E539B52102800205397561004F
:0D120C007401D0F0227561007400D0F02252
:1002A700C0F9A4B0999282F880908883C6A1868EFF
:1002B700F70CAF4740792430191202780010ABA32E
:1002C70023FF46C1BFFF804020100804010203043A
:1002D70005496E7369646520202020202020202096
:1002E700200057656C636F6D65202020202020203B
:1002F7002020004F75743A20005570202000446F6D
:10030700776E0020202020002020206F70656E204F
:10031700646F6F722020202000202020636C6F7391
:100327006520646F6F722020200020202052756E98
:100337006E696E672E2E2E20202000464C3A200034
:10034700755601755900755700755801755C00752C
:100357005D00755E00755F0075620075630075640A
:100367000075650075660112132212136F9002E97A
:1003770012137522E570B4003CE571B5701CE56198
:10038700B40002801BE560B48A0B757002756D01BD
:10039700756100800B7561008006E570F57180005E
:1003A700E550B410097401120F9D75390422757058
:1003B700207571FF22B420041203D922B42104123C
:1003C700048D22B422041204B722B4230412053484
:1003D7002222E571B5705F12063BE5616009E560B1
:1003E700540FB40C02800CAE5612078A5015120730
:1003F7005080007570227557057559007561007535
:1004070071FF221207DC5009EEB5560D1207508016
:10041700E2E5576006756400228026AE561206C6CE
:10042700ECB4060050047E0180027E08EEB5560447
:1004370075640022800BE570F57112136F12059633
:10044700228E58C0061206C6ECFBAE561206C6D060
:1004570006EBC39C400B60097564017D23F557804B
:100467000A7564027D0DECC39BF5577570217561A4
:100477000012136F9003311213758D2875292512F9
:10048700098312099922E571B57020120983AE56C6
:0D04970012078A5012AE56120750757022DF
:1004A4007557057559007571FF2212063B22E570D8
:1004B400F57122E570B42202800122E571B5705114
:1004C400E5616017E560540FB40D1075702375571E
:1004D400027559007571FF7561002212063B800098
:1004E400E559C3943250087528147529118006758E
:1004F4002825752925752A25752B25E55620E70716
:10050400752C2585562D22752C24E556F404F52DDD
:1005140022E571B423028005AF56120D6EE570F525
:1005240071AE5612075012136F90030F12137522F7
:10053400E570B42302800122E571B57047E561607E
:100544001CE560540FB40C028003B556107570227C
:100554007557057559007571FF7561002212063BC8
:100564008000E559C39432500875280C752913800E
:1005740006752825752925752A25752B25752C259D
:10058400752D2522E570F57112136F900320121357
:10059400752212136F748012134F9002E9121375AF
:1005A40074C012134F900342121375AE561205EF26
:1005B40075280F752913752A25752B25E55620E70F
:1005C40007752C2585562D22752C24E556F404F543
:1005D4002D22EFC3940A5011EF6006146007FED376
:0C05E400227EFED3227EFFD322C322EE33
:1005F00020E70C7420121358EE2430121358227482
:100600002D121358EEF40424301213582274801261
:10061000134F9002FA1213751205EF74201213583B
:10062000ED6011146007900305121375229003000A
:100630001213752290030A12137522E561700122CC
:10064000E560B48A0A757002756D03756100225405
:100650000FFFBF0A20E5656401F565E5656009AE39
:10066000667D0012060D805A748012134F9002D8D6
:10067000121375804DE56570141205D650051206EB
:10068000E1803FBF0E02803ABF0F3A80351205D697
:1006900050098E667D0012060D8027BF0E09AE66DA
:1006A0001207017D01800ABF0F0EAE661207217D81
:1006B00002AE6612060D800ABF0C028005BF0D0552
:1006C000800075610022EE20E70304FC222402FC76
:1006D00022ECB400037EFE22B401037EFF2214FE4E
:1006E000221206C6ECC394085009120741E55C4B80
:1006F000F55C22ECC39408FC120741E55D4BF55D07
:10070000221206C6ECC394085009120741E55E4B5D
:10071000F55E22ECC39408FC120741E55F4BF55FE0
:10072000221206C6ECC394085009120741E5624B39
:10073000F56222ECC39408FC120741E5634BF563B4
:1007400022EC90074893FB2201020408102040800D
:100750001206C6ECC394085016120741EBF4FBE5F1
:100760005C5BF55CE55E5BF55EE5625BF56222EC89
:10077000C39408FC120741EBF4FBE55D5BF55DE516
:100780005F5BF55FE5635BF563221206C6ECC3941D
:10079000085020120741E55C5B703FE564B402023B
:1007A000800AE55E5B7033E564B4002CE5625B7043
:1007B000298025ECC39408FC120741E55D5B701AA3
:1007C000E564B40202800AE55F5B700EE564B40084
:1007D00007E5635B70048000C322D322E55C455DBE
:1007E000455E455F456245637002C322AE56120600
:1007F000C6ECFD7A00E5646005B4020580387564D6
:1008000001EA4401FAEDFC1206D1EEB5560280056C
:1008100012090740580CECB40BED7C0AECC39D4068
:0C0820000D600B1206D112095D40421C55
:10082C0080EEEA54027035756402EA4402FAEDFC7B
:10083C00EC600B1C1206D11208D7402580F27C000C
:10084C00EDC39C400D600B1206D112093740120CFF
:10085C0080EEEA540170057564018099756400C3DB
:10086C0022D322C0041206C6ECC39408500F120700
:10087C0041E55C5B701DE55E5B70188012ECC39407
:10088C0008FC120741E55D5B7009E55F5B7004D005
:10089C0004C322D004D322C0041206C6ECC39408AD
:1008AC00500F120741E55C5B701DE5625B701880B0
:1008BC0012ECC39408FC120741E55D5B7009E5631B
:1008CC005B7004D004C322D004D322C0041206C629
:1008DC00ECC39408500F120741E55C5B7019E5629C
:1008EC005B7014800EFC120741E55D5B7009E563DB
:1008FC005B7004D004C322D004D322C0041206C6F9
:10090C00ECC39408500F120741E55C5B7019E55E6F
:10091C005B7014800EFC120741E55D5B7009E55FAE
:03092C005B7004F9
:10092F00D004C322D004D322C0041206C6ECC39451
:10093F0008500A120741E55E5B700F8009FC120731
:10094F0041E55F5B7004D004C322D004D322C004FE
:10095F001206C6ECC39408500A120741E5625B7099
:10096F000F8009FC120741E5635B7004D004C322BA
:10097F00D004D322E55620E707752A2585562B226A
:10098F00752A24E556F404F52B22E55820E7077560
:10099F002C2585582D22752C24E558F404F52D228D
:00000001FF
