:1010480075FFDE75FFAD227589112275B20722750D
:10105800A4FF75A50F75A6FF75A7FF75B5FF75E306
:101068004075A3002212104812105712104F121088
:02107800532201
:10000000C0F9A4B0999282F880908883C6A1868EA8
:10001000F70CAF4740792430191202780010ABA3D7
:1000200023FF46C1BFFF80402010080401020304E3
:0100300005CA
:03000000020200F9
:03000B00020E6B77
:03001B00021022AE
:1002000012106D7580FF75A0007400120BEC75382C
:10021000007570007571007544FF7545007546FFE7
:10022000754700754800753A03121013120E62D21A
:10023000AF12032E1208CC120FB9E570B4000512EC
:10024000036280F3B4200512036280EBB42105122F
:10025000036280E3B4220512036280DBB42305123B
:10026000036280D3B401051208DC4137B4110512D2
:1002700008DC4137B412051208DC4137B41305120B
:0E02800008DC4137B402051208DC4137413773
:100F2300C0E075F10F43844075F100D0E022C0E0CA
:100F330075F10F5384BF75F100D0E022C0E075F165
:100F43000F43848075F100D0E022C0E075F10F53A8
:100F5300847F75F100D0E02275F10F43A4C075F1D1
:100F6300007C3212107A7438120F887C3212107A95
:100F73007438120F88740C120F887406120F887459
:100F830001120F8822C0E0120F31D0E08007C0E0C9
:100F9300120F23D0E0F5B0120F3F0000120F4D7C6B
:100FA3000212107A227401120F8822E4936006124F
:060FB3000F91A380F6225D
:100FB900120C5DB5440405458005F544754501E508
:100FC90045B40345E546B54402803EE544F546E5AA
:100FD90048B40208754700754800802DE544B4FF00
:100FE90019E547C3946450028008754700754800A5
:100FF9008017754700754800800FE544540FF56068
:0A100900756101754700754800226B
:100B4A00101010101010101010101010151E161280
:100B5A00170C0E12120001011E201010212112136F
:100B6A001010102122102121212111101010101013
:100B7A000F0A13050E000E1212000101FFFFFFFFFC
:100B8A00FFFFC0F9A4B0999282F880908883C6A129
:100B9A00868EF70CAF47407924301912027800107C
:100BAA00ABA323FF46C1BFFF804020100804010207
:100BBA000304057580FF75A0FFE538FA2428F8E6D6
:100BCA00F5F0900B8CE5F093F5F0900BB2EA93F404
:100BDA00F9E5F0F58089A00538E538B406037538DB
:100BEA000022C0E0C0F0C082C083B40005900B4A66
:100BFA00804BB40105900B508043B40205900B560C
:100C0A00803BB40305900B5C8033B40405900B62FF
:100C1A00802BB40505900B688023B40605900B6EF3
:100C2A00801BB40705900B748013B40805900B7AE7
:100C3A00800BB40905900B808003900B4A78287BBF
:100C4A0000EB93F6080BEBB406F7D083D082D0F012
:030C5A00D0E022C5
:10107A00C000C001783A79F8D9FED8FADCF6D00176
:03108A00D0002271
:100C5D0074FF7590FFC293209703020CD720960363
:100C6D00020CE0209503020CE9209403020CF275AE
:100C7D0090FFC292209703020CFB209603020D04F5
:100C8D00209503020D0D209403020D167590FFC2E1
:100C9D0091209703020D1F209603020D2820950326
:100CAD00020D31209403020D3A7590FFC2902097EA
:100CBD0003020D43209603020D4C209503020D55A2
:100CCD00209403020D5E7590FF22740F754001751F
:100CDD00410122740E75400175410222740D75405B
:100CED000175410322740C75400175410422740B8A
:100CFD0075400275410122740A7540027541022248
:100D0D0074097540027541032274087540027541DE
:100D1D000422740775400375410122740675400362
:100D2D0075410222740575400375410322740475E3
:100D3D00400375410422740375400475410122740A
:100D4D00027540047541022274017540047541031A
:0A0D5D002274007540047541042261
:100E6200758CD8758AF0D28C22C0D0C0E0C0F075E3
:100E72008CD8758AF0E546B4FF02802AE547B4FFB4
:100E82000280230547E547C3946450028018E54871
:100E9200B40013E560540F4480F560756101754834
:100EA200027547648000E570B421028008B4220212
:100EB2008003B423650559E559B4645E755900E5AC
:100EC2005760271557E570B4211CE528B4230AE5BD
:100ED2005604B4000F7401800BB40D0AE55614B425
:100EE200000274FFF556E5577030E570B4211275B3
:100EF2007022755705755900E558F5567571FF80D2
:100F020019B4220E7570237557027559007571FF59
:100F120080087570207571FF8000D0F0D0E0D0D0CD
:010F2200329C
:10101300758911758DFC758B1875A88AD28E22C0BF
:10102300D0C0E0C0F0C082C083C000C001758DFC99
:10103300758B18120BBDD001D000D083D082D0F0B5
:05104300D0E0D0D03226
:10088A00C0F9A4B0999282F880908883C6A1868E16
:10089A00F70CAF4740792430191202780010ABA345
:1008AA0023FF46C1BFFF8040201008040102030451
:1008BA0005436F6E66696775726174696E67202099
:1008CA0020007550107551107552107553107554DB
:1008DA001022E570B4010412090B22B411041209A2
:1008EA008422B412041209DA22B41304120A30223E
:1008FA00B40204120A852212090B22E570F57180EE
:10090A00007402120BEC8000E561B4000122E5607C
:10091A00540FB4010775701175610022B40207758E
:10092A00701275610022B403077570137561002295
:10093A00B40A041209452275610022756100E55066
:10094A00B410028020E551B410028019E552B410A7
:10095A00028012E553B41002800BE554B4100280F1
:10096A0004757000227403120BEC7B267CF07DFF69
:10097A00000000DDFBDCF7DBF322E571B57044E52E
:10098A0061B40003800022752002752103120D98BC
:10099A00B40A061209B522153B75610022753B029D
:1009AA00E53B2428F8761075610022E560B40A0F49
:1009BA00E52AF550E52BF551756100757001227530
:1009CA00610022E570F5717404120BEC753B02228A
:1009DA00E571B57044E561B4000380002275200218
:1009EA00752104120D98B40A06120A0B22153B75DA
:1009FA00610022753B02E53B2428F87610756100F8
:0E0A0A0022E560B40A0FE52AF552E52BF553FC
:100A18007561007570012275610022E570F57174C9
:100A280005120BEC753B0222E571B57040E561B427
:100A38000003800022752001752101120D98B40A67
:100A480006120A6122153B75610022753B01E53BE0
:100A58002428F8761075610022E560B40A0BE529B0
:100A6800F5547561007570012275610022E570F515
:100A7800717528177406120BEC753B0122E571B5E8
:100A88007024E561B40002803C75200175210512CF
:100A98000DED756100802E753901E5392428F87649
:100AA80010756100801FE570F5717570027407128A
:100AB8000BEC120FA89008BB120FAE7539017561C7
:100AC8000075600022E561B4000122E560B40A13F4
:100AD800E539B40607120AEF75610022120B1C757E
:100AE8006100227561002278017B00E82428F9E77B
:100AF800FA9008B6EB93B50202800BEAF5F0EB909A
:100B080008B693B5F00A080BEBB405DF120B4522C3
:100B1800120B1C22153AE53A601C7408120BECE51E
:100B28003AF52D7B267CF07DFF000000DDFBDCF72D
:100B3800DBF3120AAE227409120BEC613E757001E8
:020B4800222267
:100D6700C0F9A4B0999282F880908883C6A1868E34
:100D7700F70CAF4740792430191202780010ABA363
:100D870023FF46C1BFFF804020100804010203046F
:100D970005C0F0E560540FFFB40A03D0F022B40B8E
:100DA70021E53B2428F8E6B4100EE53BB520028088
:100DB70009153BE53B2428F87610756100740BD0C4
:100DC700F022E53B2428F8E6B41013EFF6E53BB52F
:100DD70021028002053B7561007401D0F022756124
:100DE700007400D0F022C0F0E560540FFFB40A236E
:100DF700E570B4021BC0E0C0F0C082C083120AEFE6
:100E0700D083D082D0F0D0E07561007400D0F0229A
:100E1700D0F022B40B21E5392428F8E6B4100EE50A
:100E270039B5200280091539E5392428F876107577
:100E37006100740BD0F022E5392428F8E6B41013CA
:100E4700EFF6E539B52102800205397561007401B5
:0B0E5700D0F0227561007400D0F02282
:10028E00C0F9A4B0999282F880908883C6A1868E18
:10029E00F70CAF4740792430191202780010ABA347
:1002AE0023FF46C1BFFF8040201008040102030453
:1002BE0005496E73696465202020202020202020AF
:1002CE00200057656C636F6D652020202020202054
:1002DE002020004F75743A20005570202000446F86
:1002EE00776E0020202020002020206F70656E2069
:1002FE00646F6F722020202000202020636C6F73AB
:10030E006520646F6F722020200020202052756EB1
:10031E006E696E672E2E2E20202000464C3A20004D
:10032E00755601755900755700755801755C007545
:10033E005D00755E00755F00756200756300756423
:10034E0000756500756601120F5B120FA89002D042
:10035E00120FAE22E570B40039E571B57019E56182
:10036E00B400028018E560B48A08757002756100E9
:10037E00800B7561008006E570F5718000E550B464
:10038E0010097401120BEC75390422757020757109
:10039E00FF22B420041203BD22B4210412046622EB
:1003AE00B4220412049022B423041204F92222E58A
:1003BE0071B570541205F8E5616009E560540FB42B
:1003CE000C02800CAE5612073950121206FF800036
:1003DE007570227557057559007571FF2212078BBE
:1003EE00500BEEB556051206FF80E58026AE56126E
:1003FE000675ECB4060050047E0180027E08EEB550
:10040E00560475640022800BE570F571120FA81268
:10041E000553228E58C006120675ECFBAE56120618
:10042E0075D006EBC39C400B60097564017D23F506
:10043E0057800A7564027D0DECC39BF557757021CC
:10044E00756100120FA8900318120FAE8D28752932
:10045E002512085E12087422E571B5702012085E2E
:10046E00AE561207395012AE561206FF757022752F
:0D047E0057057559007571FF221205F8220F
:10048B00E570F57122E571B57051E5616017E560B6
:10049B00540FB40D10757023755702755900757193
:1004AB00FF756100221205F88000E559C3943250A4
:1004BB000875281475291180067528257529257549
:1004CB002A25752B25E55620E707752C2585562DF6
:1004DB0022752C24E556F404F52D22E570F571AE4A
:1004EB00561206FF120FA89002F6120FAE22E571FC
:1004FB00B57047E561601CE560540FB40C028003D6
:10050B00B556107570227557057559007571FF75C5
:10051B006100221205F88000E559C394325008752A
:10052B00280C7529138006752825752925752A250C
:10053B00752B25752C25752D2522E570F571120F60
:10054B00A8900307120FAE22120FA87480120F8807
:10055B009002D0120FAE74C0120F88900329120FA5
:10056B00AEAE561205AC75280F752913752A257575
:10057B002B25E55620E707752C2585562D22752C46
:10058B0024E556F404F52D22EFC3940A5011EF60C5
:10059B0006146007FED3227EFED3227EFFD322C336
:1005AB0022EE20E70C7420120F91EE2430120F91E3
:1005BB0022742D120F91EEF4042430120F91227439
:0A05CB0080120F889002E1120FAEBB
:1005D5001205AC7420120F91ED60111460079002A2
:1005E500EC120FAE229002E7120FAE229002F1122A
:1005F5000FAE22E5616078E560540FFFBF0A20E584
:10060500656401F565E5656009AE667D001205CA9C
:10061500805A7480120F889002BF120FAE804DE58C
:100625006570141205935005120690803FBF0E02A7
:10063500803ABF0F3A803512059350098E667D00CA
:100645001205CA8027BF0E09AE661206B07D01806D
:100655000ABF0F0EAE661206D07D02AE661205CA3F
:10066500800ABF0C028005BF0D0580007561002260
:10067500EE20E70304FC222402FC22ECB400037EF6
:10068500FE22B401037EFF2214FE22120675ECC37E
:10069500940850091206F0E55C4BF55C22ECC39416
:1006A50008FC1206F0E55D4BF55D22120675ECC3FC
:1006B500940850091206F0E55E4BF55E22ECC394F2
:1006C50008FC1206F0E55F4BF55F22120675ECC3D8
:1006D500940850091206F0E5624BF56222ECC394CA
:1006E50008FC1206F0E5634BF56322EC9006F793E0
:0A06F500FB220102040810204080DF
:1006FF00120675ECC3940850161206F0EBF4FBE5E6
:10070F005C5BF55CE55E5BF55EE5625BF56222ECDA
:10071F00C39408FC1206F0EBF4FBE55D5BF55DE5B9
:10072F005F5BF55FE5635BF56322120675ECC394BF
:10073F000850201206F0E55C5B703FE564B40202DE
:10074F00800AE55E5B7033E564B4002CE5625B7094
:10075F00298025ECC39408FC1206F0E55D5B701A46
:10076F00E564B40202800AE55F5B700EE564B400D5
:10077F0007E5635B70048000C322D322E55C455D0F
:10078F00455E455F456245637002C322AE56120651
:10079F0075ECFD7A00E5646005B40205802475648C
:1007AF0001EA4401FAEDFC120680EEB5560280050F
:1007BF001207F640300CECB40BEDEA5402702175C1
:1007CF006402EA4402FAEDFCEC600B1C1206801284
:1007DF00082A401180F2EA5401700575640180C146
:1007EF00756400C322D322C004120675ECC39408AB
:0807FF00500F1206F0E55C5BEF
:10080700701DE55E5B70188012ECC39408FC12063D
:10081700F0E55D5B7009E55F5B7004D004C322D02F
:1008270004D322C004120675ECC39408500F1206B5
:10083700F0E55C5B701DE5625B70188012ECC39499
:1008470008FC1206F0E55D5B7009E5635B7004D098
:1008570004C322D004D322E55620E707752A25854D
:10086700562B22752A24E556F404F52B22E5582049
:10087700E707752C2585582D22752C24E558F40497
:03088700F52D222A
:00000001FF
