:1014380075FFDE75FFAD227589112275B207227519
:10144800A4FF75A50F75A6FF75A7FF75B5FF75E312
:101458004075A3002212143812144712143F1214B4
:0214680043221D
:10000000C0F9A4B0999282F880908883C6A1868EA8
:10001000F70CAF4740792430191202780010ABA3D7
:1000200023FF46C1BFFF80402010080401020304E3
:0100300005CA
:03000000020200F9
:03000B0002124B93
:03001B00021412BA
:03002B0002148B31
:1002000012145D7580FF75A0007581807400120F57
:10021000C67538007570007571007544FF7545002E
:100220007546FF754700754800753A0312140312AE
:100230001242120D93D2AF120DDF12034A120A209E
:10024000756D011213A9E570B4000512037E80F3E9
:10025000B4200512037E80EBB4210512037E80E3F7
:10026000B4220512037E80DBB4230512037E80D303
:10027000B40105120A3E4143B41105120A3E41433E
:10028000B41205120A3E4143B41305120A3E41431B
:10029000B40205120A3E4143B40305120A3E41432B
:0A02A000B40405120A3E4143414335
:1013A90012103BB5440405458005F544754501E532
:1013B90045B40345E546B54402803EE544F546E5B6
:1013C90048B40208754700754800802DE544B4FF0C
:1013D90019E547C3946450028008754700754800B1
:1013E9008017754700754800800FE544540FF56074
:0A13F9007561017547007548002278
:10131300C0E075F10F43844075F100D0E022C0E0D6
:1013230075F10F5384BF75F100D0E022C0E075F171
:101333000F43848075F100D0E022C0E075F10F53B4
:10134300847F75F100D0E02275F10F43A4C075F1DD
:10135300007C3212149174381213787C3212149177
:101363007438121378740C12137874061213787489
:101373000112137822C0E0121321D0E08007C0E0ED
:10138300121313D0E0F5B012132F000012133D7C9B
:101393000212149122740112137822E4936006124C
:0613A3001381A380F62275
:100F2400101010101010101010101010151E1612A2
:100F3400170C0E12120001011E2010102121121391
:100F44001010102122102121212111101010101035
:100F54000F0A13050E000E1212000101FFFFFFFF1E
:100F6400FFFFC0F9A4B0999282F880908883C6A14B
:100F7400868EF70CAF47407924301912027800109E
:100F8400ABA323FF46C1BFFF804020100804010229
:100F94000304057580FF75A0FFE538FA2428F8E6F8
:100FA400F5F0900F66E5F093F5F0900F8CEA93F46A
:100FB400F9E5F0F58089A00538E538B406037538FD
:100FC4000022C0E0C0F0C082C083B40005900F24AA
:100FD400804BB40105900F2A8043B40205900F3072
:100FE400803BB40305900F368033B40405900F3C66
:100FF400802BB40505900F428023B40605900F485A
:10100400801BB40705900F4E8013B40805900F544D
:10101400800BB40905900F5A8003900F24C2AF7857
:10102400287B00EB93F6080BEBB406F7D2AFD08322
:07103400D082D0F0D0E022D1
:100D93001214A422C0E0C0D0EFB4FE047A0A800F7C
:100DA300B4FF047A0B8008B40900502B6029FAEAD7
:100DB3001423FDC083C082900E3B93FEED0493FF8A
:100DC300D082D0831214B01214A87CFA1214917C2E
:100DD300FA1214911214ACD0D0D0E022C083C08296
:100DE300900E59E493FABAFF028045A3E493FBA360
:100DF300C083C082EA60141423FD900E3B93FEED82
:100E03000493FF1214B01214A880031214ACEB6005
:100E130019C0E07C0F1214917C0F121491D0E014CE
:100E230070EF1214AC7C0A121491D082D08380B379
:100E3300D082D0831214AC22FAD8FB69FBE9FC24DC
:100E4300FC8FFCF0FD45FD6DF91EF9DEFA8AFDB558
:100E5300FDF5F6D1F7D106020602060305010602E7
:100E6300030205040303050103020B02060806043B
:100E7300080306010C020802080206020603050124
:100E83000202050203080603060106020502060123
:100E93000601080206020502030103010202010121
:100EA3000901030202080503030105020302050207
:100EB30005020302080206100604060305010602E2
:100EC300030205040303050103020B0206080604DB
:100ED300080306010C0208020802060206030501C4
:100EE30002020502030806030601060205020601C3
:100EF30006010802060205020301030105020101BE
:100F030009010302020805030301050203020501A7
:100F1300030105020504050205020302080206088F
:010F2300FFCE
:1014A40012146A22121475221214782212147E2243
:10149100C000C001783A79F8D9FED8FADCF6D0015B
:0314A100D0002256
:10103B0074FF7590FFC2932097030210B52096039F
:10104B000210BE2095030210C72094030210D07526
:10105B0090FFC2922097030210D92096030210E250
:10106B002095030210EB2094030210F47590FFC23D
:10107B00912097030210FD20960302110620950381
:10108B0002110F2094030211187590FFC290209744
:10109B000302112120960302112A2095030211331A
:1010AB0020940302113C7590FF22740F754001755B
:1010BB00410122740E75400175410222740D754079
:1010CB000175410322740C75400175410422740BA8
:1010DB0075400275410122740A7540027541022266
:1010EB0074097540027541032274087540027541FD
:1010FB000422740775400375410122740675400381
:10110B007541022274057540037541032274047501
:10111B004003754104227403754004754101227428
:10112B000275400475410222740175400475410338
:0A113B00227400754004754104227F
:10124200758CCC758A2BD28C22C0D0C0E0C0F075D0
:101252008CCC758A2BE546B4FF02802AE547B4FFA1
:101262000280230547E547C3946450028018E5488D
:10127200B40013E560540F4480F560756101754850
:10128200027547648000E570B42102800FB4220227
:10129200800AB423028005B4207080000559E55904
:1012A200B46467755900E55760271557E570B42196
:1012B2001CE528B4230AE55604B4000F7401800B20
:1012C200B40D0AE55614B4000274FFF556E55770E2
:1012D20039E570B42112757022755705755900E50C
:1012E20058F5567571FF8022B4220E75702375571A
:1012F200027559007571FF8011B4230E7570207547
:10130200570A7559007571FF8000D0F0D0E0D0D037
:0113120032A8
:10140300758911758DFC758B1875A88AD28E22C0CB
:10141300D0C0E0C0F0C082C083C000C001758DFCA5
:10142300758B18120F97D001D000D083D082D0F0E3
:05143300D0E0D0D03232
:10146A0075C800C2CFD2AD5384DF22D2CA22C2CA03
:10147A005384DF22C2CA8ECB8FCA8ECD8FCCD2CAFA
:07148A0022C2CF638420326F
:1009BC00C0F9A4B0999282F880908883C6A1868EE3
:1009CC00F70CAF4740792430191202780010ABA312
:1009DC0023FF46C1BFFF804020100804010203041E
:1009EC0005436F6E66696775726174696E67202066
:1009FC002000312D4E657720322D44656620202055
:100A0C002020004E65772050617373202020202019
:100A1C002020200075501075511075521075531010
:100A2C007554109009E878687F05E493F6A308DF05
:100A3C00F922E570B40104120A7522B41104120BE8
:100A4C000E22B41204120B6422B41304120BBA2239
:100A5C00B40204120C0F22B40304120C9222B4043C
:100A6C0004120CF322120A7522E571B57002800F84
:100A7C00E570F5711213989009ED12139E800074B5
:100A8C0002120FC68000E561B4000122E560540F2C
:100A9C00B4010775701175610022B40207757012EC
:100AAC0075610022B4030775701375610022B404DC
:100ABC000775700375610022B40A04120ACF2275FF
:100ACC00610022756100E550B410028020E551B43C
:100ADC0010028019E552B410028012E553B41002D2
:100AEC00800BE554B410028004757000227403125C
:100AFC000FC67B267CF07DFF000000DDFBDCF7DB06
:100B0C00F322E571B57044E561B4000380002275F1
:100B1C002002752103121176B40A06120B3F22151E
:100B2C003B75610022753B02E53B2428F876107575
:100B3C00610022E560B40A0FE52AF550E52BF5516A
:100B4C007561007570012275610022E570F5717494
:0F0B5C0004120FC6753B0222E571B57044E561C6
:100B6B00B40003800022752002752104121176B4A3
:100B7B000A06120B9522153B75610022753B02E5A7
:100B8B003B2428F8761075610022E560B40A0FE566
:100B9B002AF552E52BF553756100757001227561CD
:100BAB000022E570F5717405120FC6753B0222E544
:100BBB0071B57040E561B4000380002275200175AA
:100BCB002101121176B40A06120BEB22153B75614B
:100BDB000022753B01E53B2428F876107561002255
:100BEB00E560B40A0BE529F55475610075700122B7
:100BFB0075610022E570F5717528177406120FC622
:100C0B00753B0122E571B57024E561B40002804E9D
:100C1B007520017521051211CB7561008040753966
:100C2B0001E5392428F876107561008031E570F5FF
:100C3B00717570027407120FC61213989009ED129A
:100C4B00139E752811752910752A10752B10752C8C
:100C5B0010752D1075390175610075600022E56105
:100C6B00B4000122E560B40A1AE539B4050EE52D8E
:100C7B00B410028007120D4675610022120D5F75CC
:100C8B0061002275610022E571B5702DE561602868
:100C9B00E560540FB4010775700475610022B4024E
:100CAB000A120CE475700175610022B40A077570A5
:0D0CBB00017561002275610022E570F57180
:100CC8001213989009FE12139E752825752925750B
:100CD8002A25752B25752C25752D25229009E87850
:100CE800687F05E493F6A308DFF922E571B5701B68
:100CF800E56160167520017521051211CBB40A0A49
:100D0800120D397570017561002222E570F57112B6
:100D18001398900A0F12139E752811752910752AB9
:100D280010752B10752C10752D1075390175610013
:100D380022782979687F05E6F70809DFFA227829F9
:100D480079687B05E6F5F0E7B5F0080809DBF512E8
:100D58000D8E22120D5F22153AE53A6022740812B0
:100D68000FC6E53AF52D7B267CF07DFF000000DDFF
:100D7800FBDCF7DBF3120C38756000756100227438
:0B0D880009120FC6A187856D702222A2
:10114500C0F9A4B0999282F880908883C6A1868E52
:10115500F70CAF4740792430191202780010ABA381
:1011650023FF46C1BFFF804020100804010203048D
:1011750005C0F0E560540FFFB40A03D0F022B40BAC
:1011850021E53B2428F8E6B4100EE53BB5200280A6
:1011950009153BE53B2428F87610756100740BD0E2
:1011A500F022E53B2428F8E6B41013EFF6E53BB54D
:1011B50021028002053B7561007401D0F022756142
:1011C500007400D0F022C0F0E560540FFFB40A258A
:1011D500E570B4021BC0E0C0F0C082C083120D46AA
:1011E500D083D082D0F0D0E07561007400D0F022B9
:1011F500740AD0F022B40B21E5392428F8E6B4109E
:101205000EE539B5200280091539E5392428F87627
:1012150010756100740BD0F022E5392428F8E6B486
:101225001013EFF6E539B521028002053975610025
:0D1235007401D0F0227561007400D0F02229
:1002AA00C0F9A4B0999282F880908883C6A1868EFC
:1002BA00F70CAF4740792430191202780010ABA32B
:1002CA0023FF46C1BFFF8040201008040102030437
:1002DA0005496E7369646520202020202020202093
:1002EA00200057656C636F6D652020202020202038
:1002FA002020004F75743A20005570202000446F6A
:10030A00776E0020202020002020206F70656E204C
:10031A00646F6F722020202000202020636C6F738E
:10032A006520646F6F722020200020202052756E95
:10033A006E696E672E2E2E20202000464C3A200031
:10034A00755601755900755700755801755C007529
:10035A005D00755E00755F00756200756300756407
:10036A000075650075660112134B1213989002EC22
:10037A0012139E22E570B4003CE571B5701CE5616C
:10038A00B40002801BE560B48A0B757002756D01BA
:10039A00756100800B7561008006E570F57180005B
:1003AA00E550B410097401120FC67539042275702C
:1003BA00207571FF22B420041203DC22B421041236
:1003CA00049322B422041204BD22B4230412053E6B
:1003DA002222E571B57062120648E5616009E5609E
:1003EA00540FB40C02800CAE56120797501812071D
:1003FA005D80007570227557057559007564007522
:10040A0061007571FF221207E95009EEB5560D1207
:10041A00075D80DFE5576006756400228026AE56C8
:10042A001206D3ECB4050050047E0180027E08EE69
:10043A00B5560475640022800BE570F571121398A5
:10044A001205A3228E58C0061206D3ECFBAE561232
:10045A0006D3D006EBC39C400B60097564017D236B
:10046A00F557800A7564027D0DECC39BF5577570CC
:10047A002175610012139890033412139E8D28750A
:10048A0029251209901209A622E571B570201209D0
:0D049A0090AE561207975012AE5612075D35
:1004A7007570227557057559007571FF2212064838
:1004B70022E570F57122E570B42202800122E57110
:1004C700B57051E5616017E560540FB40D10757094
:1004D700237557027559007571FF75610022120661
:1004E700488000E559C394325008752814752911BE
:1004F7008006752825752925752A25752B25E55626
:1005070020E707752C2585562D22752C24E556F4F2
:1005170004F52D22E571B423028009E5646005AF77
:1005270056120D97E570F571AE5612075D121398C6
:1005370090031212139E22E570B42302800122E574
:1005470071B5704AE561601FE560540FB40C028015
:1005570003B55613757022755705755900756400F4
:100567007571FF756100221206488000E559C39432
:1005770032500875280C75291380067528257529AA
:1005870025752A25752B25752C25752D2522E570B2
:10059700F57112139890032312139E221213987465
:1005A700801213789002EC12139E74C01213789085
:1005B700034512139EAE561205FC75280F752913B5
:1005C700752A25752B25E55620E707752C258556B1
:1005D7002D22752C24E556F404F52D22EFC3940A39
:1005E7005011EF6006146007FED3227EFED3227EF1
:0205F700FFD330
:1005F90022C322EE20E70C7420121381EE2430125C
:10060900138122742D121381EEF404243012138104
:100619002274801213789002FD12139E1205FC7445
:1006290020121381ED601114600790030812139EC4
:100639002290030312139E2290030D12139E22E5AA
:1006490061700122E560B48A0A757002756D0175E1
:10065900610022540FFFBF0A20E5656401F565E5D5
:10066900656009AE667D0012061A805A74801213FD
:10067900789002DB12139E804DE56570141205E334
:1006890050051206EE803FBF0E02803ABF0F3A8036
:10069900351205E350098E667D0012061A8027BFC0
:1006A9000E09AE6612070E7D01800ABF0F0EAE66F7
:1006B90012072E7D02AE6612061A800ABF0C02804E
:1006C90005BF0D05800075610022EE20E70304FCDB
:1006D900222402FC22ECB400037EFE22B401037E34
:1006E900FF2214FE221206D3ECC394085009120704
:1006F9004EE55C4BF55C22ECC39408FC12074EE511
:100709005D4BF55D221206D3ECC39408500912071C
:0C0719004EE55E4BF55E22ECC39408FC3C
:1007250012074EE55F4BF55F221206D3ECC3940822
:10073500500912074EE5624BF56222ECC39408FCA2
:1007450012074EE5634BF56322EC90075593FB22A8
:1007550001020408102040801206D3ECC39408500F
:100765001612074EEBF4FBE55C5BF55CE55E5BF5AD
:100775005EE5625BF56222ECC39408FC12074EEB62
:10078500F4FBE55D5BF55DE55F5BF55FE5635BF5FB
:1007950063221206D3ECC39408502012074EE55C81
:1007A5005B703FE564B40202800AE55E5B7033E589
:1007B50064B4002CE5625B70298025ECC39408FCC9
:1007C50012074EE55D5B701AE564B40202800AE526
:1007D5005F5B700EE564B40007E5635B7004800041
:1007E500C322D322E55C455D455E455F45624563B1
:1007F5007002C322AE561206D3ECFD7A00E56460A2
:1008050005B402058038756401EA4401FAEDFC126D
:1008150006DEEEB55602800512091440580CECB4FC
:0B0825000BED7C0AECC39D400D600B46
:100830001206DE12096A40421C80EEEA540270354C
:10084000756402EA4402FAEDFCEC600B1C1206DE51
:100850001208E4402580F27C00EDC39C400D600B43
:100860001206DE12094440120C80EEEA54017005B3
:100870007564018099756400C322D322C0041206F6
:10088000D3ECC39408500F12074EE55C5B701DE576
:100890005E5B70188012ECC39408FC12074EE55D95
:1008A0005B7009E55F5B7004D004C322D004D322DF
:1008B000C0041206D3ECC39408500F12074EE55C37
:1008C0005B701DE5625B70188012ECC39408FC122B
:1008D000074EE55D5B7009E5635B7004D004C322DD
:1008E000D004D322C0041206D3ECC39408500F12D4
:1008F000074EE55C5B7019E5625B7014800EFC12BC
:10090000074EE55D5B7009E5635B7004D004C322AC
:10091000D004D322C0041206D3ECC39408500F12A3
:10092000074EE55C5B7019E55E5B7014800EFC128F
:05093000074EE55D5BD0
:100935007009E55F5B7004D004C322D004D322C0E4
:10094500041206D3ECC39408500A12074EE55E5B09
:10095500700F8009FC12074EE55F5B7004D004C37D
:1009650022D004D322C0041206D3ECC39408500A43
:1009750012074EE5625B700F8009FC12074EE563B6
:100985005B7004D004C322D004D322E55620E707C8
:10099500752A2585562B22752A24E556F404F52B50
:1009A50022E55820E707752C2585582D22752C241E
:0709B500E558F404F52D22C2
:00000001FF
