:10000000C0F9A4B0999282F880908883C6A1868EA8
:10001000F70CAF4740792430191202780010ABA3D7
:1000200023FF46C1BFFF80402010080401020304E3
:0100300005CA
:03000000020200F9
:03000B00020DECF7
:03001B00020FA32E
:10020000120FEE7580FF75A0007400120B6D75382B
:10021000007570007571007544FF7545007546FFE7
:10022000754700754800753A03120F94120DE3D21A
:10023000AF120318120856120F3AE570B4000512F7
:10024000034C80F3B4200512034C80EBB42105125B
:10025000034C80E3B4220512034C80DBB423051267
:10026000034C80D3B401051208664137B41105125E
:1002700008664137B412051208664137B4130512F7
:0E02800008664137B40205120866413741375F
:100FC90075FFDE75FFAD227589112275B20722758D
:100FD900A4FF75A50F75A6FF75A7FF75B5FF75E386
:100FE9004075A30022120FC9120FD8120FD0120F89
:020FF900D42200
:100F3A00120BDEB5440405458005F544754501E507
:100F4A0045B40345E546B54402803EE544F546E529
:100F5A0048B40208754700754800802DE544B4FF7F
:100F6A0019E547C394645002800875470075480024
:100F7A008017754700754800800FE544540FF560E7
:0A0F8A0075610175470075480022EB
:100ACB00101010101010101010101010151E161200
:100ADB00170C0E12120001011E20101021211213EF
:100AEB001010102122102121212111101010101093
:100AFB000F0A13050E000E1212000101FFFFFFFF7C
:100B0B00FFFFC0F9A4B0999282F880908883C6A1A8
:100B1B00868EF70CAF4740792430191202780010FB
:100B2B00ABA323FF46C1BFFF804020100804010286
:100B3B000304057580FF75A0FFE538FA2428F8E655
:100B4B00F5F0900B0DE5F093F5F0900B33EA93F481
:100B5B00F9E5F0F58089A00538E538B4060375385A
:100B6B000022C0E0C0F0C082C083B40005900ACB65
:100B7B00804BB40105900AD18043B40205900AD78B
:100B8B00803BB40305900ADD8033B40405900AE37F
:100B9B00802BB40505900AE98023B40605900AEF73
:100BAB00801BB40705900AF58013B40805900AFB67
:100BBB00800BB40905900B018003900ACB78287B3E
:100BCB0000EB93F6080BEBB406F7D083D082D0F092
:030BDB00D0E02245
:100EA400C0E075F10F43844075F100D0E022C0E04A
:100EB40075F10F5384BF75F100D0E022C0E075F1E5
:100EC4000F43848075F100D0E022C0E075F10F5328
:100ED400847F75F100D0E02275F10F43A4C075F151
:100EE400007C32120FFB7438120F097C32120FFB94
:100EF4007438120F09740C120F097406120F097456
:100F040001120F0922C0E0120EB2D0E08007C0E047
:100F1400120EA4D0E0F5B0120EC00000120ECE7C6A
:100F240002120FFB227401120F0922E493600612CD
:060F34000F12A380F6225B
:100BDE0074FF7590FFC293209703020C5820960362
:100BEE00020C61209503020C6A209403020C7375AB
:100BFE0090FFC292209703020C7C209603020C8574
:100C0E00209503020C8E209403020C977590FFC260
:100C1E0091209703020CA0209603020CA9209503A5
:100C2E00020CB2209403020CBB7590FFC290209769
:100C3E0003020CC4209603020CCD209503020CD6A1
:100C4E00209403020CDF7590FF22740F754001751E
:100C5E00410122740E75400175410222740D7540DA
:100C6E000175410322740C75400175410422740B09
:100C7E0075400275410122740A75400275410222C7
:100C8E00740975400275410322740875400275415E
:100C9E0004227407754003754101227406754003E2
:100CAE007541022274057540037541032274047563
:100CBE00400375410422740375400475410122748A
:100CCE00027540047541022274017540047541039A
:0A0CDE0022740075400475410422E1
:100DE300758CD8758AF0D28C22C0D0C0E0C0F07563
:100DF3008CD8758AF0E546B4FF02802AE547B4FF34
:100E03000280230547E547C3946450028018E548F0
:100E1300B40013E560540F4480F5607561017548B3
:100E2300027547648000E570B421028008B4220291
:100E33008003B423650559E559B4645E755900E52B
:100E43005760271557E570B4211CE528B4230AE53C
:100E53005604B4000F7401800BB40D0AE55614B4A4
:100E6300000274FFF556E5577030E570B421127532
:100E73007022755705755900E558F5567571FF8051
:100E830019B4220E7570237557027559007571FFD9
:100E930080087570207571FF8000D0F0D0E0D0D04D
:010EA300321C
:100F9400758911758DFC758B1875A88AD28E22C03F
:100FA400D0C0E0C0F0C082C083C000C001758DFC19
:100FB400758B18120B3ED001D000D083D082D0F0B4
:050FC400D0E0D0D032A6
:100FFB00C000C001783A79F8D9FED8FADCF6D001F6
:03100B00D00022F0
:100CE800C0F9A4B0999282F880908883C6A1868EB4
:100CF800F70CAF4740792430191202780010ABA3E3
:100D080023FF46C1BFFF80402010080401020304EE
:100D180005C0F0E560540FFFB40A03D0F022B40B0D
:100D280021E53B2428F8E6B4100EE53BB520028007
:100D380009153BE53B2428F87610756100740BD043
:100D4800F022E53B2428F8E6B41013EFF6E53BB5AE
:100D580021028002053B7561007401D0F0227561A3
:100D6800007400D0F022C0F0E560540FFFB40A23ED
:100D7800E570B4021BC0E0C0F0C082C083120A70E4
:100D8800D083D082D0F0D0E07561007400D0F0221A
:100D9800D0F022B40B21E5392428F8E6B4100EE58A
:100DA80039B5200280091539E5392428F8761075F7
:100DB8006100740BD0F022E5392428F8E6B410134A
:100DC800EFF6E539B5210280020539756100740135
:0B0DD800D0F0227561007400D0F02202
:10082500C0F9A4B0999282F880908883C6A1868E7B
:10083500F70CAF4740792430191202780010ABA3AA
:1008450023FF46C1BFFF80402010080401020304B6
:10085500057550107551107552107553107554105B
:1008650022E570B4010412089522B4110412090E90
:1008750022B4120412096422B413041209BA22B470
:100885000204120A0F2212089522E570F571800004
:100895007402120B6D8000E561B4000122E560541D
:1008A5000FB4010775701175610022B402077570E8
:1008B5001275610022B4030775701375610022B4C7
:1008C5000A041208CF2275610022756100E550B453
:1008D50010028020E551B410028019E552B41002CF
:1008E5008012E553B41002800BE554B41002800465
:1008F500757000227403120B6D7B267CF07DFF0062
:100905000000DDFBDCF7DBF322E571B57044E56142
:10091500B40003800022752002752103120D19B45D
:100925000A0612093F22153B75610022753B02E557
:100935003B2428F8761075610022E560B40A0FE5BE
:100945002AF550E52BF55175610075700122756129
:100955000022E570F5717404120B6D753B0222E5FA
:1009650071B57044E561B4000380002275200275FD
:100975002104120D19B40A0612099522153B756159
:100985000022753B02E53B2428F8761075610022AC
:0D099500E560B40A0FE52AF552E52BF55395
:1009A2007561007570012275610022E570F5717440
:1009B20005120B6D753B0222E571B57040E561B41D
:1009C2000003800022752001752101120D19B40A5D
:1009D200061209EB22153B75610022753B01E53BCE
:1009E2002428F8761075610022E560B40A0BE52927
:1009F200F5547561007570012275610022E570F58C
:100A0200717528177406120B6D753B0122E571B5DD
:100A12007024E561B400028033752001752105124E
:100A22000D6E7561008025753901E5392428F87647
:100A3200107561008016E570F57175700274071209
:100A42000B6D75390175610075600022E561B400B6
:100A52000122E560B40A13E539B40607120A70757B
:100A6200610022120A9D75610022756100227801DF
:100A72007B00E82428F9E7FA900851EB93B50202CB
:100A8200800BEAF5F0EB90085193B5F00A080BEBF6
:100A9200B405DF120AC622120A9D22153AE53A600F
:100AA2001C7408120B6DE53AF52D7B267CF07DFF58
:100AB200000000DDFBDCF7DBF3120A3822740912B6
:090AC2000B6D41BF757001222289
:10028E00C0F9A4B0999282F880908883C6A1868E18
:10029E00F70CAF4740792430191202780010ABA347
:1002AE0023FF46C1BFFF8040201008040102030453
:1002BE0005496E73696465202020202020202020AF
:1002CE0020004F75743A20005570202000446F773F
:1002DE006E0020202020002020206F70656E20648C
:1002EE006F6F722020202000202020636C6F7365BA
:1002FE0020646F6F722020200020202052756E6EB9
:10030E00696E672E2E2E202020007556017559001D
:10031E00755700755801755C00755D00755E00754A
:10032E005F00756200756300756400756500756623
:10033E0001120EDC120F299002BF120F2F22E57050
:10034E00B40039E571B57019E561B400028018E5A5
:10035E0060B48A08757002756100800B756100804B
:10036E0006E570F5718000E550B410097401120BAA
:10037E006D753904227570207571FF22B420041238
:10038E0003A722B4210412041E22B422041204482C
:10039E0022B423041204B12222E571B57022120593
:1003AE00951207265016EEB5561012069C75702241
:1003BE007557057559007571FF22800F75640022FF
:1003CE00E570F571120F2912050B228E58C0061218
:1003DE000612ECFBAE56120612D006EBC39C400B77
:1003EE0060097564017D23F557800A7564027D0DE1
:1003FE00ECC39BF557757021756100120F299003A0
:10040E0007120F2F8D287529251207F912080F22B2
:10041E00E571B570201207F9AE561206D65012AE1F
:10042E005612069C7570227557057559007571FF29
:10043E002212059522E570F57122E571B57051E530
:10044E00616017E560540FB40D1075702375570277
:10045E007559007571FF756100221205958000E5D2
:09046E0059C3943250087528149A
:100477007529118006752825752925752A25752B57
:1004870025E55620E707752C2585562D22752C2442
:10049700E556F404F52D22E570F571AE5612069C6B
:1004A700120F299002E5120F2F22E571B57047E56B
:1004B70061601CE560540FB40C028003B5561075DB
:1004C70070227557057559007571FF756100221205
:1004D70005958000E559C39432500875280C752995
:1004E700138006752825752925752A25752B2575E9
:1004F7002C25752D2522E570F571120F299002F62E
:10050700120F2F22120F29752814752911752A2504
:10051700752B25E55620E707752C2585562D227561
:100527002C24E556F404F52D22EFC3940A5011EF5D
:100537006006146007FED3227EFED3227EFFD322FD
:10054700C322EE20E70C7420120F12EE2430120F94
:100557001222742D120F12EEF4042430120F1222FD
:100567007480120F099002D0120F2F1205497420C0
:10057700120F12ED60111460079002DB120F2F2289
:100587009002D6120F2F229002E0120F2F22E56160
:100597006078E560540FFFBF0A20E5656401F565E3
:1005A700E5656009AE667D00120567805A748012A2
:0205B7000F092A
:1005B9009002BF120F2F804DE5657014120530505F
:1005C9000512062D803FBF0E02803ABF0F3A8035D3
:1005D90012053050098E667D001205678027BF0E0F
:1005E90009AE6612064D7D01800ABF0F0EAE661276
:1005F900066D7D02AE66120567800ABF0C02800592
:10060900BF0D05800075610022EE20E70304FC227E
:100619002402FC22ECB400037EFE22B401037EFF17
:100629002214FE22120612ECC39408500912068DF8
:10063900E55C4BF55C22ECC39408FC12068DE55D84
:100649004BF55D22120612ECC39408500912068D6F
:10065900E55E4BF55E22ECC39408FC12068DE55F5E
:100669004BF55F22120612ECC39408500912068D4D
:10067900E5624BF56222ECC39408FC12068DE56332
:100689004BF56322EC90069493FB220102040810B7
:10069900204080120612ECC39408501612068DEB06
:1006A900F4FBE55C5BF55CE55E5BF55EE5625BF5DD
:1006B9006222ECC39408FC12068DEBF4FBE55D5B4A
:0706C900F55DE55F5BF55FE5
:1006D000E5635BF56322120612ECC3940850201206
:1006E000068DE55C5B703DE564B40107E55E5B701B
:1006F00033802FE564B4022AE5625B70278023EC27
:10070000C39408FC12068DE55D5B7018E564B401C6
:1007100007E55F5B700E800AE564B40205E5635B84
:100720007002C322D322E55C455D455E455F4562AC
:1007300045637002C322AE56120612ECFD7A00E544
:10074000646005B402058024756401EA4401FAED91
:10075000FC12061DEEB55602800512079140300CC2
:10076000ECB40BEDEA54027021756402EA4402FA1B
:10077000EDFCEC600B1C12061D1207C5401180F247
:10078000EA5401700575640180C1756400C322D309
:1007900022C004120612ECC39408500F12068DE515
:1007A0005C5B701DE55E5B70188012ECC39408FC06
:1007B00012068DE55D5B7009E55F5B7004D004C3D4
:1007C00022D004D322C004120612ECC39408500FA6
:0B07D00012068DE55C5B701DE5625BAE
:1007DB0070188012ECC39408FC12068DE55D5B70FB
:1007EB0009E5635B7004D004C322D004D322E55621
:1007FB0020E707752A2585562B22752A24E556F402
:10080B0004F52B22E55820E707752C2585582D225A
:0A081B00752C24E558F404F52D2295
:00000001FF
