:10000000C0F9A4B0999282F880908883C6A1868EA8
:10001000F70CAF4740792430191202780010ABA3D7
:0E00200023FF4620100804020101020304051C
:03000000020700F4
:03000B00020CB52F
:03001B00020D08CB
:100700007580FF75A0007400120AE77538007570D7
:10071000007571007544FF7545007546FF7547000B
:10072000754800753A03120CF9120CAC120C52E524
:1007300070B4000512076380F3B40105120790E15D
:100740002CB4110512080CE12CB41205120883E137
:100750002CB413051208FAE12CB40205120970E159
:100760002CE12CE571B57019E561B400028018E543
:1007700060B48A08757002756100800B7561008035
:1007800006E570F57180007401120AE775390422DC
:10079000E571B57007E561B4000EE1A2E570F57191
:1007A00080007402120AE722E560540FB40A0412B2
:1007B00007E122E560540FB40107757011756100FF
:1007C00022E560540FB4020775701275610022E5CE
:1007D00060540FB4030775701375610022756100D2
:1007E00022E550600FE552600BE55460077570001C
:1007F000756100227403120AE77B047CF07DFF0020
:100800000000DDFBDCF7DBF375610022E571B570FC
:1008100065E561B40003800022E560540FFFC394D6
:100820000A5014E53B2430F8EFF6E53BB4020280B1
:1008300002153B75610022E560B40B22E53B2430D4
:10084000F87610053BE53BC3940450047561002223
:10085000753B03E53B2430F8761075610022E560B6
:10086000B40A0FE533F550E532F551756100757046
:10087000012275610022E570F5717404120AE775B2
:100880003B0322E571B57065E561B4000380002289
:10089000E560540FFFC3940A5014E53B2430F8EF91
:1008A000F6E53BB401028002153B75610022E5606C
:1008B000B40B22E53B2430F87610053BE53BC394AE
:1008C00004500475610022753B03E53B2430F87643
:1008D0001075610022E560B40A0FE533F552E53288
:1008E000F5537561007570012275610022E570F5A0
:1008F000717405120AE7753B0322E571B57061E575
:1009000061B40003800022E560540FFFC3940A50D5
:1009100014E53B2430F8EFF6E53BB4040280021501
:100920003B75610022E560B40B22E53B2430F8768C
:1009300010053BE53BC39405500475610022753BEF
:1009400004E53B2430F8761075610022E560B40AB6
:100950000BE534F554756100757001227561002254
:10096000E570F5717535177406120AE7753B0422B8
:10097000E571B5704FE561B400028058E560540F31
:10098000FFC3940A5015E5392430F8EFF6E539B481
:10099000FF02800215397561008039E560B40B34BF
:1009A0000539E539C39405500CE5392430F8761043
:1009B000756100801F753904E5392430F8761075AB
:1009C00061008010E570F5717570027407120AE716
:1009D00075390422E561B4000122E560B40A13E52B
:1009E00039B4FF071209F675610022120A237561F6
:1009F00000227561002278047B00E82430F9E7FAD0
:100A0000900029EB93B50202800BEAF5F0EB900021
:100A10002993B5F00A180BEBB405DF120A4A22122B
:100A20000A2322153AE53A601A7408120AE7E53AF1
:100A3000F5307B067CF07DFF000000DDFBDCF7DBA2
:0E0A4000F321C47409120AE7414375700122C4
:100C5200120B58B5440405458005F544754501E578
:100C620045B40345E546B54402803EE544F546E514
:100C720048B40208754700754800802DE544B4FF6A
:100C820019E547C39464500280087547007548000F
:100C92008017754700754800800FE544540FF560D2
:0A0CA20075610175470075480022D6
:100A4E00101010101010101010101010151E16127D
:100A5E00170C0E12120001011E201010212112136C
:100A6E001010102122102121212111101010101010
:100A7E000F0A13050E000E1212000101C0F9A4B0E8
:100A8E00999282F880908883C6A1868EF70CAF4724
:100A9E0040792430191202780010ABA323FF4620B0
:100AAE00100804020101020304057580FF75A00001
:100ABE00E538FA2430F8E6F5F0900A8AE5F093F579
:100ACE00F0900AADEA93F9E5F0F580E9F5A0053866
:100ADE00E538B4060375380022C0E0C0F0C082C00D
:100AEE0083B40005900A4E804BB40105900A5480E1
:100AFE0043B40205900A5A803BB40305900A608005
:100B0E0033B40405900A66802BB40505900A6C80F8
:100B1E0023B40605900A72801BB40705900A7880EC
:100B2E0013B40805900A7E800BB40905900A8480E0
:100B3E0003900A4E78357B00EB93F6180BEBB40658
:0A0B4E00F7D083D082D0F0D0E0226F
:100B580074FF7590FFC29320970261C220960261CC
:100B6800CB20950261D420940261DD7590FFC2927A
:100B780020970261E620960261EF20950261F82035
:100B8800940281017590FFC291209702810A2096F4
:100B9800028113209502811C20940281257590FF03
:100BA800C290209702812E209602813720950281DB
:100BB8004020940281497590FF22740F7540017599
:100BC800410122740E75400175410222740D754071
:100BD8000175410322740C75400175410422740BA0
:100BE80075400275410122740A754002754102225E
:100BF80074097540027541032274087540027541F5
:100C08000422740775400375410122740675400378
:100C180075410222740575400375410322740475F9
:100C28004003754104227403754004754101227420
:100C38000275400475410222740175400475410330
:0A0C48002274007540047541042277
:100CAC00758CD8758AF0D28C22C0D0C0E0C0F0759B
:100CBC008CD8758AF0E546B4FF02802AE547B4FF6C
:100CCC000280230547E547C3946450028018E54829
:100CDC00B40013E560540F4480F5607561017548EC
:0D0CEC00027547648000D0F0D0E0D0D03217
:100CF900758911758DFC758B1875A88AD28E22C0DD
:100D0900D0C0E0C0F0C082C083C000C001758DFCB6
:100D1900758B18120AB8D001D000D083D082D0F0D8
:050D2900D0E0D0D03243
:00000001FF
