:1012E70075FFDE75FFAD227589112275B20722756C
:1012F700A4FF75A50F75A6FF75A7FF75B5FF75E365
:101307004075A300221212E71212F61212EE121201
:02131700F222C0
:10000000C0F9A4B0999282F880908883C6A1868EA8
:10001000F70CAF4740792430191202780010ABA3D7
:1000200023FF46C1BFFF80402010080401020304E3
:0100300005CA
:03000000020200F9
:03000B000210FAE6
:03001B000212C10D
:03002B0002133A83
:1002000012130C7580FF75A0007400120E7B7538F8
:10021000007570007571007544FF7545007546FFE7
:10022000754700754800753A031212B21210F112A8
:100230000C48D2AF1203311209CA121258E570B439
:10024000000512036580F3B4200512036580EBB44A
:10025000210512036580E3B4220512036580DBB437
:10026000230512036580D3B401051209DA413AB4BB
:1002700011051209DA413AB412051209DA413AB409
:1002800013051209DA413AB402051209DA413A417A
:010290003A33
:10125800120EECB5440405458005F544754501E5D5
:1012680045B40345E546B54402803EE544F546E508
:1012780048B40208754700754800802DE544B4FF5E
:1012880019E547C394645002800875470075480003
:101298008017754700754800800FE544540FF560C6
:0A12A80075610175470075480022CA
:1011C200C0E075F10F43844075F100D0E022C0E029
:1011D20075F10F5384BF75F100D0E022C0E075F1C4
:1011E2000F43848075F100D0E022C0E075F10F5307
:1011F200847F75F100D0E02275F10F43A4C075F130
:10120200007C3212134074381212277C32121340BF
:101212007438121227740C121227740612122774D1
:101222000112122722C0E01211D0D0E08007C0E0E4
:101232001211C2D0E0F5B01211DE00001211EC7CE6
:101242000212134022740112122722E49360061242
:061252001230A380F62219
:100DD900101010101010101010101010151E1612EF
:100DE900170C0E12120001011E20101021211213DE
:100DF9001010102122102121212111101010101082
:100E09000F0A13050E000E1212000101FFFFFFFF6A
:100E1900FFFFC0F9A4B0999282F880908883C6A197
:100E2900868EF70CAF4740792430191202780010EA
:100E3900ABA323FF46C1BFFF804020100804010275
:100E49000304057580FF75A0FFE538FA2428F8E644
:100E5900F5F0900E1BE5F093F5F0900E41EA93F44E
:100E6900F9E5F0F58089A00538E538B40603753849
:100E79000022C0E0C0F0C082C083B40005900DD943
:100E8900804BB40105900DDF8043B40205900DE558
:100E9900803BB40305900DEB8033B40405900DF14C
:100EA900802BB40505900DF78023B40605900DFD40
:100EB900801BB40705900E038013B40805900E0932
:100EC900800BB40905900E0F8003900DD978287B0B
:100ED90000EB93F6080BEBB406F7D083D082D0F081
:030EE900D0E02234
:100C480012135322C0E0C0D0EFB4FE047A0A800F1A
:100C5800B4FF047A0B8008B40900502B6029FAEA23
:100C68001423FDC083C082900CF093FEED0493FF23
:100C7800D082D08312135F1213577CFA1213407C70
:100C8800FA12134012135BD0D0D0E022C083C08286
:100C9800900D0EE493FABAFF028045A3E493FBA3F8
:100CA800C083C082EA60141423FD900CF093FEED1B
:100CB8000493FF12135F121357800312135BEB6048
:100CC80019C0E07C0F1213407C0F121340D0E014BF
:100CD80070EF12135B7C0A121340D082D08380B36A
:100CE800D082D08312135B22FAD8FB69FBE9FC247B
:100CF800FC8FFCF0FD45FD6DF91EF9DEFA8AFDB5A5
:100D0800FDF5F6D1F7D10602060206030501060233
:100D1800030205040303050103020B020608060487
:100D2800080306010C020802080206020603050170
:100D3800020205020308060306010602050206016F
:100D4800060108020602050203010301020201016D
:100D58000901030202080503030105020302050253
:100D6800050203020802061006040603050106022E
:100D7800030205040303050103020B020608060427
:100D8800080306010C020802080206020603050110
:100D9800020205020308060306010602050206010F
:100DA800060108020602050203010301050201010A
:100DB80009010302020805030301050203020501F4
:100DC80003010502050405020502030208020608DC
:010DD800FF1B
:1013530012131922121324221213272212132D22DD
:10134000C000C001783A79F8D9FED8FADCF6D001AD
:03135000D00022A8
:100EEC0074FF7590FFC293209703020F6620960340
:100EFC00020F6F209503020F78209403020F817567
:100F0C0090FFC292209703020F8A209603020F9340
:100F1C00209503020F9C209403020FA57590FFC22D
:100F2C0091209703020FAE209603020FB720950372
:100F3C00020FC0209403020FC97590FFC290209736
:100F4C0003020FD2209603020FDB209503020FE45D
:100F5C00209403020FED7590FF22740F75400175FC
:100F6C00410122740E75400175410222740D7540C9
:100F7C000175410322740C75400175410422740BF8
:100F8C0075400275410122740A75400275410222B6
:100F9C00740975400275410322740875400275414D
:100FAC0004227407754003754101227406754003D1
:100FBC007541022274057540037541032274047552
:100FCC004003754104227403754004754101227479
:100FDC000275400475410222740175400475410389
:0A0FEC0022740075400475410422D0
:1010F100758CCC758A2BD28C22C0D0C0E0C0F07523
:101101008CCC758A2BE546B4FF02802AE547B4FFF3
:101111000280230547E547C3946450028018E548DF
:10112100B40013E560540F4480F5607561017548A2
:10113100027547648000E570B42102800FB4220279
:10114100800AB423028005B4207080000559E55956
:10115100B46467755900E55760271557E570B421E8
:101161001CE528B4230AE55604B4000F7401800B72
:10117100B40D0AE55614B4000274FFF556E5577034
:1011810039E570B42112757022755705755900E55E
:1011910058F5567571FF8022B4220E75702375576C
:1011A100027559007571FF8011B4230E7570207599
:1011B100570A7559007571FF8000D0F0D0E0D0D08A
:0111C10032FB
:1012B200758911758DFC758B1875A88AD28E22C01E
:1012C200D0C0E0C0F0C082C083C000C001758DFCF8
:1012D200758B18120E4CD001D000D083D082D0F082
:0512E200D0E0D0D03285
:1013190075C800C2CFD2AD5384DF22D2CA22C2CA55
:101329005384DF22C2CA8ECB8FCA8ECD8FCCD2CA4C
:0713390022C2CF63842032C1
:10098800C0F9A4B0999282F880908883C6A1868E17
:10099800F70CAF4740792430191202780010ABA346
:1009A80023FF46C1BFFF8040201008040102030452
:1009B80005436F6E66696775726174696E6720209A
:1009C80020007550107551107552107553107554DC
:1009D8001022E570B40104120A0922B41104120AA3
:1009E8008222B41204120AD822B41304120B2E2243
:1009F800B40204120B8322120A0922E570F57180F1
:100A0800007402120E7B8000E561B4000122E560EB
:100A1800540FB4010775701175610022B40207758F
:100A2800701275610022B403077570137561002296
:100A3800B40A04120A432275610022756100E55068
:100A4800B410028020E551B410028019E552B410A8
:100A5800028012E553B41002800BE554B4100280F2
:100A680004757000227403120E7B7B267CF07DFFD8
:100A7800000000DDFBDCF7DBF322E571B57044E52F
:100A880061B400038000227520027521031210272B
:100A9800B40A06120AB322153B75610022753B029F
:100AA800E53B2428F8761075610022E560B40A0F4A
:100AB800E52AF550E52BF551756100757001227531
:100AC800610022E570F5717404120E7B753B0222F9
:100AD800E571B57044E561B4000380002275200219
:100AE800752104121027B40A06120B0922153B754A
:100AF800610022753B02E53B2428F87610756100F9
:0E0B080022E560B40A0FE52AF552E52BF553FD
:100B16007561007570012275610022E570F57174CA
:100B260005120E7B753B0222E571B57040E561B496
:100B36000003800022752001752101121027B40AD6
:100B460006120B5F22153B75610022753B01E53BE2
:100B56002428F8761075610022E560B40A0BE529B1
:100B6600F5547561007570012275610022E570F516
:100B7600717528177406120E7B753B0122E571B557
:100B86007024E561B40002803C75200175210512D0
:100B9600107C756100802E753901E5392428F876B8
:100BA60010756100801FE570F5717570027407128B
:100BB6000E7B1212479009B912124D7539017561F3
:100BC6000075600022E561B4000122E560B40A13F5
:100BD600E539B40607120BED75610022120C1A7581
:100BE6006100227561002278017B00E82428F9E77C
:100BF600FA9009B4EB93B50202800BEAF5F0EB909C
:100C060009B493B5F00A080BEBB405DF120C4322C6
:100C1600120C1A22153AE53A601C7408120E7BE58E
:100C26003AF52D7B267CF07DFF000000DDFBDCF72E
:100C3600DBF3120BAC227409120E7B813C7570013A
:020C4600222268
:100FF600C0F9A4B0999282F880908883C6A1868EA3
:10100600F70CAF4740792430191202780010ABA3D1
:1010160023FF46C1BFFF80402010080401020304DD
:1010260005C0F0E560540FFFB40A03D0F022B40BFC
:1010360021E53B2428F8E6B4100EE53BB5200280F6
:1010460009153BE53B2428F87610756100740BD032
:10105600F022E53B2428F8E6B41013EFF6E53BB59D
:1010660021028002053B7561007401D0F022756192
:10107600007400D0F022C0F0E560540FFFB40A23DC
:10108600E570B4021BC0E0C0F0C082C083120BED55
:10109600D083D082D0F0D0E07561007400D0F02209
:1010A600D0F022B40B21E5392428F8E6B4100EE579
:1010B60039B5200280091539E5392428F8761075E6
:1010C6006100740BD0F022E5392428F8E6B4101339
:1010D600EFF6E539B5210280020539756100740124
:0B10E600D0F0227561007400D0F022F1
:10029100C0F9A4B0999282F880908883C6A1868E15
:1002A100F70CAF4740792430191202780010ABA344
:1002B10023FF46C1BFFF8040201008040102030450
:1002C10005496E73696465202020202020202020AC
:1002D100200057656C636F6D652020202020202051
:1002E1002020004F75743A20005570202000446F83
:1002F100776E0020202020002020206F70656E2066
:10030100646F6F722020202000202020636C6F73A7
:100311006520646F6F722020200020202052756EAE
:100321006E696E672E2E2E20202000464C3A20004A
:10033100755601755900755700755801755C007542
:100341005D00755E00755F00756200756300756420
:10035100007565007566011211FA1212479002D3F9
:1003610012124D22E570B40039E571B57019E561DD
:10037100B400028018E560B48A08757002756100E6
:10038100800B7561008006E570F5718000E550B461
:1003910010097401120E7B75390422757020757174
:1003A100FF22B420041203C022B4210412047422D7
:1003B100B4220412049E22B4230412051B2222E556
:1003C10071B5705F120622E5616009E560540FB4F2
:1003D1000C02800CAE5612076350151207298000DB
:1003E1007570227557057559007561007571FF2289
:1003F1001207B55009EEB5560D12072980E2E557EF
:100401006006756400228026AE5612069FECB40683
:100411000050047E0180027E08EEB556047564002A
:1004210022800BE570F57112124712057D228E585C
:10043100C00612069FECFBAE5612069FD006EBC318
:100441009C400B60097564017D23F557800A756432
:10045100027D0DECC39BF557757021756100121279
:100461004790031B12124D8D2875292512095C1224
:10047100097222E571B5702012095CAE561207634C
:0D0481005012AE56120729757022755705EE
:10048E007559007571FF2212062222E570F5712250
:10049E00E570B42202800122E571B57051E561600C
:1004AE0017E560540FB40D1075702375570275590A
:1004BE00007571FF756100221206228000E559C396
:1004CE0094325008752814752911800675282575E3
:1004DE002925752A25752B25E55620E707752C2528
:1004EE0085562D22752C24E556F404F52D22E57142
:1004FE00B423028005AF56120C4CE570F571AE5662
:10050E001207291212479002F912124D22E570B409
:10051E002302800122E571B57047E561601CE5603C
:10052E00540FB40C028003B5561075702275570522
:10053E007559007571FF756100221206228000E563
:10054E0059C39432500875280C75291380067528E6
:10055E0025752925752A25752B25752C25752D258F
:10056E0022E570F57112124790030A12124D2212F3
:10057E00124774801212279002D312124D74C012B9
:10058E00122790032C12124DAE561205D675280F57
:10059E00752913752A25752B25E55620E707752C29
:1005AE002585562D22752C24E556F404F52D22EFC3
:1005BE00C3940A5011EF6006146007FED3227EFE2C
:0C05CE00D3227EFFD322C322EE20E70CD4
:1005DA007420121230EE243012123022742D1212AC
:1005EA0030EEF40424301212302274801212279052
:1005FA0002E412124D1205D67420121230ED601167
:10060A001460079002EF12124D229002EA12124D64
:10061A00229002F412124D22E5616078E560540FCF
:10062A00FFBF0A20E5656401F565E5656009AE6608
:10063A007D001205F4805A74801212279002C212A9
:10064A00124D804DE56570141205BD50051206BAAB
:10065A00803FBF0E02803ABF0F3A80351205BD5067
:10066A00098E667D001205F48027BF0E09AE661258
:10067A0006DA7D01800ABF0F0EAE661206FA7D0207
:10068A00AE661205F4800ABF0C028005BF0D058014
:10069A000075610022EE20E70304FC222402FC22FA
:1006AA00ECB400037EFE22B401037EFF2214FE2274
:1006BA0012069FECC39408500912071AE55C4BF521
:1006CA005C22ECC39408FC12071AE55D4BF55D2227
:1006DA0012069FECC39408500912071AE55E4BF5FF
:1006EA005E22ECC39408FC12071AE55F4BF55F2201
:0C06FA0012069FECC39408500912071A66
:10070600E5624BF56222ECC39408FC12071AE56316
:100716004BF56322EC90072193FB2201020408109B
:1007260020408012069FECC39408501612071AEB5D
:10073600F4FBE55C5BF55CE55E5BF55EE5625BF54F
:100746006222ECC39408FC12071AEBF4FBE55D5B2E
:10075600F55DE55F5BF55FE5635BF5632212069F7A
:10076600ECC39408502012071AE55C5B703FE56401
:10077600B40202800AE55E5B7033E564B4002CE5E2
:10078600625B70298025ECC39408FC12071AE55DAC
:100796005B701AE564B40202800AE55F5B700EE5E1
:1007A60064B40007E5635B70048000C322D322E5CE
:1007B6005C455D455E455F456245637002C322AE9A
:1007C6005612069FECFD7A00E5646005B4020580CA
:1007D60038756401EA4401FAEDFC1206AAEEB55634
:1007E6000280051208E040580CECB40BED7C0AECD4
:1007F600C39D400D600B1206AA12093640421C80AA
:0C080600EEEA54027035756402EA440208
:10081200FAEDFCEC600B1C1206AA1208B04025800F
:10082200F27C00EDC39C400D600B1206AA12091067
:1008320040120C80EEEA54017005756401809975CE
:100842006400C322D322C00412069FECC394085052
:100852000F12071AE55C5B701DE55E5B7018801273
:10086200ECC39408FC12071AE55D5B7009E55F5B57
:100872007004D004C322D004D322C00412069FEC19
:10088200C39408500F12071AE55C5B701DE5625BAA
:1008920070188012ECC39408FC12071AE55D5B70B5
:1008A20009E5635B7004D004C322D004D322C004E0
:1008B20012069FECC39408500F12071AE55C5B7096
:1008C20019E5625B7014800EFC12071AE55D5B701D
:1008D20009E5635B7004D004C322D004D322C004B0
:1008E20012069FECC39408500F12071AE55C5B7066
:1008F20019E55E5B7014800EFC12071AE55D5B70F1
:1009020009E55F5B7004D004C322D004D322C00483
:1009120012069FECC39408500A12071AE55E5B7038
:100922000F8009FC12071AE55F5B7004D004C32232
:10093200D004D322C00412069FECC39408500A12BA
:10094200071AE5625B700F8009FC12071AE5635B08
:100952007004D004C322D004D322E55620E70775E1
:100962002A2585562B22752A24E556F404F52B22D6
:10097200E55820E707752C2585582D22752C24E58E
:0609820058F404F52D22DB
:00000001FF
