:0300000002071ED6
:03000B00020D38AB
:03001B00020CE7ED
:10001E00C0F9A4B0999282F880908883C6A1868E8A
:10002E00F70CAF4740792430191202780010ABA3B9
:0E003E0023FF462010080402010102030405FE
:10071E007580FF75A000120CC475380075700075D9
:10072E0071007544FF7545007546FF7547007548A5
:10073E0000753A03758911758DFC758B18758CD8FB
:10074E00758AF075A88AD28ED28C120B18B5440415
:10075E0005458005F544754501E545B40347800020
:10076E00E546B54402803EE544F546E548B4020848
:10077E00754700754800802DE544B4FF19E547C361
:10078E0094645002800875470075480080177547BD
:10079E0000754800800FE544540FF56075610175D2
:1007AE004700754800E570B40005120D7C809BB4BF
:1007BE000105120945E158B411051209BDE158B4FD
:1007CE001205120A32E158B41305120AA7E158B401
:1007DE0002051207E7E158E158E571B5704FE56182
:1007EE00B400028056E560540FFFC3940A5015E51D
:1007FE00392430F8EFF6E539B4FF02800215397569
:10080E0061008037E560B40B320539E539C39405D4
:10081E00500CE5392430F87610756100801D75395D
:10082E0004E5392430F87610756100800EE570F518
:10083E0071757002120C9775390422E561B40001CE
:10084E0022E560B40A13E539B4FF0712086B75612F
:10085E000022120898756100227561002278047BCF
:0A086E0000E82430F9E7FA90004793
:10087800EB93B50202800BEAF5F0EB90004793B5D5
:10088800F00A180BEBB405DF1208B72212089822F9
:10089800153AE53A6014120CD37B067CF07DFF0014
:1008A8000000DDFBDCF7DBF3013B120C4001B27505
:0308B800700122AA
:100B180074FF7590FFC2932097026182209602614C
:100B28008B2095026194209402619D7590FFC2927A
:100B380020970261A620960261AF20950261B82035
:100B4800940261C17590FFC29120970261CA2096F4
:100B58000261D320950261DC20940261E57590FF63
:100B6800C29020970261EE20960261F720950281DB
:100B78000020940281097590FF22740F7540017559
:100B8800410122740E75400175410222740D7540B1
:100B98000175410322740C75400175410422740BE0
:100BA80075400275410122740A754002754102229E
:100BB8007409754002754103227408754002754135
:100BC80004227407754003754101227406754003B9
:100BD800754102227405754003754103227404753A
:100BE8004003754104227403754004754101227461
:100BF8000275400475410222740175400475410371
:0A0C080022740075400475410422B7
:100C1200C0D0C0E0C0F0C000C002C003C082C08328
:100C220078307A007B06EA93F6080ADBF9D083D0A3
:100C320082D003D002D000D0F0D0E0D0D022C08247
:100C4200C083900C4F120C12D083D082220101007B
:100C520012120E0C1712161E1521211010201E1032
:100C6200101010101010101010101121101010136D
:100C720012212121211022C082C083900C55120C16
:100C820012D083D08222C082C083900C5B120C12DD
:100C9200D083D08222C082C083900C67120C12D003
:100CA20083D08222C082C083900C6D120C12D0833A
:100CB200D08222C082C083900C73120C12D083D0D7
:100CC2008222C082C083900C61120C12D083D08227
:100CD2002275350F75340A75331375320575310E69
:050CE200E53AF53022A7
:100D3800C0D0C0E0C0F0758CD8758AF0E546B4FF25
:100D480002802AE547B4FF0280230547E547C3949C
:100D58006450028018E548B40013E560540F4480DD
:100D6800F5607561017548027547648000D0F0D060
:040D7800E0D0D032C5
:1008BB00C0F9A4B0999282F880908883C6A1868EE5
:1008CB00F70CAF4740792430191202780010ABA314
:0E08DB0023FF46201008040201010203040559
:100CE700C0D0C0E0C0F0C082C083C000C001758D15
:100CF700FC758B187580FF75A000E538FA2430F86D
:100D0700E6F5F09008BBE5F093F5F09008DEEA937E
:100D1700F9E5F0F580E9F5A00538E538B40603757F
:100D27003800D001D000D083D082D0F0D0E0D0D02E
:010D37003289
:1008E900C0F9A4B0999282F880908883C6A1868EB7
:1008F900F70CAF4740792430191202780010ABA3E6
:0E09090023FF4620100804020101020304052A
:10094500E571B57007E561B4000C2157E570F571E7
:100955008000120C7922E560540FB40A0412099440
:1009650022E560540FB4010775701175610022E529
:1009750060540FB4020775701275610022E560546A
:100985000FB403077570137561002275610022E5C8
:1009950050600FE552600BE5546007757000756196
:1009A5000022120C407B047CF07DFF000000DDFB83
:1009B500DCF7DBF375610022E571B57065E561B4BF
:1009C5000003800022E560540FFFC3940A5014E52C
:1009D5003B2430F8EFF6E53BB402028002153B7587
:1009E500610022E560B40B22E53B2430F876100562
:1009F5003BE53BC39404500475610022753B03E558
:100A05003B2430F8761075610022E560B40A0FE5E5
:100A150033F550E532F55175610075700122756148
:100A25000022E570F571120C88753B0322E571B55E
:100A35007065E561B40003800022E560540FFFC3D3
:100A4500940A5014E53B2430F8EFF6E53BB4010277
:100A55008002153B75610022E560B40B22E53B245D
:0D0A650030F87610053BE53BC394045004C7
:100A720075610022753B03E53B2430F87610756101
:100A82000022E560B40A0FE533F552E532F55375FD
:100A920061007570012275610022E570F571120C1A
:100AA200A6753B0322E571B57061E561B400038070
:100AB2000022E560540FFFC3940A5014E53B243032
:100AC200F8EFF6E53BB404028002153B75610022A3
:100AD200E560B40B22E53B2430F87610053BE53B9C
:100AE200C39405500475610022753B04E53B243034
:100AF200F8761075610022E560B40A0BE534F5540E
:100B02007561007570012275610022E570F5711240
:060B12000CB5753B042246
:10091700C0F9A4B0999282F880908883C6A1868E88
:10092700F70CAF4740792430191202780010ABA3B7
:0E09370023FF462010080402010102030405FC
:100D7C00E571B57019E561B400028018E560B48ABC
:100D8C0008757002756100800B7561008006E57056
:0B0D9C00F5718000120CC475390422B0
:00000001FF
